:100000000C9417130C9430C20C9405C20C94DAC1F2
:100010000C94AFC10C9484C10C9459C10C942EC1A2
:100020000C9403C10C9448130C9448130C9448137B
:100030000C9448130C9455B30C9448130C94481327
:100040000C9448130C943E380C9448130C944813A9
:100050000C9448130C9448130C94B3440C94B9C0FA
:100060000C9448130C942EA40C9448130C9448132D
:100070000C9448130C9448130C9448130C94481394
:100080000C9448130C9448130C9448130C94481384
:100090000C9448130C9448130C9448130C94481374
:1000A0000C9448130C9448130C9448130C94481364
:1000B0000C9448130C9448130C9448130C94481354
:1000C0000C9448130C9448130C9448130C94481344
:1000D0000C9448130C9448130C947B330C943C33CD
:1000E0000C944813084AD73B3BCE016E84BCBFFD3D
:1000F000C12F3D6C74319ABD56833DDA3D00C77FF8
:1001000011BED9E4BB4C3E916BAAAABE0000008090
:100110003F05A84CCDB2D44EB93836A9020C50B91F
:10012000918688083CA6AAAA2ABE000000803F004B
:100130000C9442C60C9486730C9446B50C94E571ED
:100140000C9463460C94DABD0C948D6C0C94D1B471
:100150000C9418460C94DC240C948FBD0C944346EC
:100160000C9430B60C949FB70C94D5130C94EEBD40
:100170000C9434780C94BCBD0C9499130C943034CA
:100180000C946BBD0C941D780C94F9A40C94F5A4FC
:100190000C947D1C0C947B460C94A8770C94CCA4F6
:1001A0000C9433460C9454BD0C9418CB0C94C1AAF7
:1001B0000C94CF770C94C61B0C94B8740C94E01379
:1001C0000C94ADB60C9485460C9401D50C94E3A424
:1001D0000C9479710C940C750C9476460C94021462
:1001E0000C9490540C94FD750C9473A40C94734669
:1001F0000C9485D60C940A740C94DC720C943D78A3
:100200000C9438C60C946E460C9468B40C945CBD87
:100210000C94DB730C942CA50C941BAC0C942274E2
:100220000C9497740C941B140C94DD740C94D3A44C
:100230000C9425450C94D0BD0C947FBD0C94E7A480
:100240000C9404360C9461BD0C9403A50C9499BDD8
:100250000C943E750C9483570C94BFAA0C9475BDF6
:100260000C94AC200C9406720C94EBA40C9446767F
:100270000C948D520C94D0A40C94D9A40C94FA151F
:100280000C946B460C9422B70C94FFA40C94BEA45F
:100290000C94F8770C94BC2E0C94F9150C94F1A4E2
:1002A0000C94BBB50C94AD750C94C8A40C947BC590
:1002B0000C9426160C94DDA40C948F750C94891D57
:1002C0000C944FC30C9466460C9467D60C94C4A44B
:1002D0000C9475720C9439CA0C9466750C94702049
:1002E0000C94D0710C94A3BD0C9471160C9487BD22
:1002F0000C94E4BD0C945E780C94B3710C946B4038
:100300000C94ADBD0C9436200C9415200C94EE3555
:100310000C9494710C94C6BD0C945E460C94FEA48F
:100320000C9447714E414E494E495459494E46CD61
:10033000CCCC3D0AD7233C17B7D13877CC2B32959C
:1003400095E6241FB14F0A000020410000C842007A
:10035000401C4620BCBE4CCA1B0E5AAEC59D744301
:100360004F4D4D554E49434154494F4E004452590B
:1003700052554E004552524F525300494E464F007F
:100380004543484F001000C90210012C01400122D2
:100390000170011801B0010E01F00104015002FAD0
:1003A00000B002F0003003E600D003DC009004D27D
:1003B000007005C800A006BE000008B400B009AA7D
:1003C00000D00BA000600E960060118C000015821A
:1003D0000020197800C01D6E00A0226400B0275ACA
:1003E00000902C500000314600E0343C00103832C0
:1003F00000903A2800603C1E00A03D1400803E0A98
:1004000000203F00004A3032004A31360056312E7B
:10041000322E36004A333320004A3032004A31321D
:1004200000473930004731204525694635303000D6
:10043000473120452D302E31462569004731204572
:10044000302E31462569004731205A2569462569F5
:10045000004731205A2D302E314625690047312082
:100460005A302E31462569004731205925694625E5
:100470006900473120592D302E314625690047311A
:100480002059302E314625690047312058256946CC
:10049000256900473120582D302E31462569004707
:1004A000312058302E314625690047393100473216
:1004B0003800473238205A00473238205900473236
:1004C000382058004132305620004F4B004A303619
:1004D000004D3834004D313037004A3034004A3155
:1004E00036004A303500454E4400464E20004A3022
:1004F00032003939393A393939004D00480041372D
:10050000562000413656202D2D2D00413656200014
:100510005A3A2000593A2000583A200041355600F6
:1005200041345620004133562000413256200041CC
:1005300031562000413056200045525220004D31A6
:100540003130004A3130004B494C4C45442E20009C
:1005500053544F505045442E20005072696E7465BC
:10056000722073746F707065642064756520746F99
:10057000206572726F72732E2046697820746865E8
:10058000206572726F7220616E6420757365204DF4
:1005900039393920746F20726573746172742E203A
:1005A0002854656D70657261747572652069732079
:1005B00072657365742E20536574206974206166BA
:1005C0007465722072657374617274696E67290A4A
:1005D000004E6F204C696E65204E756D626572200D
:1005E0007769746820636865636B73756D2C204C44
:1005F000617374204C696E653A20004E6F20436829
:1006000065636B73756D2077697468206C696E65BE
:10061000206E756D6265722C204C617374204C697C
:100620006E653A2000636865636B73756D206D6954
:10063000736D617463682C204C617374204C696E17
:10064000653A20004C696E65204E756D62657220BA
:100650006973206E6F74204C617374204C696E65F1
:10066000204E756D6265722B312C204C61737420A5
:100670004C696E653A20004D313130004A3134000A
:100680004D3331004D383420582059205A20450030
:1006900053442072656164206572726F720A00446F
:1006A0006F6E65207072696E74696E672066696C22
:1006B000650A0020496E76616C6964206578747201
:1006C00075646572200000009B4300009B4300801E
:1006D000984300000000000088C000000000206E69
:1006E0006F7420656E74657265642E0A0044656CD3
:1006F0006574696F6E206661696C65642C2046695B
:100700006C653A200046696C652064656C657465AB
:10071000643A006F70656E206661696C65642C20B8
:1007200046696C653A20002042403A0020403A0079
:10073000202F0020423A00202F0020543A004A3057
:1007400033004A3034004A30370048656174696EBE
:100750006720646F6E652E003F0A0020573A004AFA
:1007600030360048656174696E672E2E2E00334462
:10077000205072696E7465722072656164792E0012
:1007800042656420646F6E652E004A3039003F0A6E
:100790000020573A004265642048656174696E67BD
:1007A0002E004A303800205A3A0020593A0020439F
:1007B0006F756E7420583A200020453A00205A3A4E
:1007C0000020593A00583A00205A00205900580099
:1007D00020204D61783A2000205A0020590058000E
:1007E00020204D696E3A20004F6E20004F66660053
:1007F000536F667420656E6473746F70733A200073
:1008000020643A0020693A0020703A004B642000CE
:1008100023646566696E65202044454641554C5405
:100820005F004B69200023646566696E6520204483
:10083000454641554C545F004B702000236465666B
:10084000696E65202044454641554C545F0050492F
:1008500044204175746F74756E652066696E6973A6
:10086000686564212050757420746865206C61731C
:1008700074204B702C204B6920616E64204B6420E7
:10088000636F6E7374616E74732066726F6D206235
:10089000656C6F7720696E746F20436F6E66696751
:1008A00075726174696F6E2E680A00504944204168
:1008B00075746F74756E65206661696C656421205E
:1008C00074696D656F75740A0050494420417574F0
:1008D0006F74756E65206661696C6564212054656E
:1008E0006D706572617475726520746F6F206869D0
:1008F00067680A00204B643A2000204B693A2000C8
:10090000204B703A20000A20436C617373696320A6
:10091000504944200A002054753A2000204B753A73
:100920002000206D61783A2000206D696E3A200029
:1009300020643A200020626961733A20004D65739B
:1009400068205859206F7220494A2063616E6E6F8B
:1009500074206265207265736F6C7665640A004D61
:100960003432312072657175697265732058595A35
:10097000206F7220494A5A20706172616D657465FA
:1009800072730A004D657368205859206F722049B0
:100990004A2063616E6E6F74206265207265736FAA
:1009A0006C7665640A004572723A20546F6F206657
:1009B00061722100546F6F206661722066726F6DE4
:1009C000207265666572656E636520706F696E740E
:1009D0000A004F666673657473206170706C696598
:1009E00064004D36303020486F74656E6420746F3B
:1009F0006F20636F6C6420746F206368616E67653D
:100A00002066696C616D656E740A0020746F6F20DA
:100A10006C6F6E6720657874727573696F6E207085
:100A2000726576656E7465640A0020636F6C64207D
:100A3000657874727573696F6E2070726576656E15
:100A40007465640A0047322F473320626164207066
:100A50006172616D65746572730A00536C656570CF
:100A60002E2E2E004A30340059206F7574206F6688
:100A70002072616E67652028312D35292E0A0058B5
:100A8000206F7574206F662072616E676520283153
:100A90002D35292E0A00473238004D6573682070C5
:100AA000726F62696E6720646F6E652E0A00537400
:100AB000617274206D6573682070726F62696E6711
:100AC000207769746820224732392053312220660A
:100AD000697273742E0A004732380A47323920533C
:100AE00032004D65736820626564206C6576656CC4
:100AF000696E67206E6F74206163746976652E0A73
:100B0000002020000A4D6561737572656420706F66
:100B1000696E74733A0A005A206F66667365743A98
:100B200020005A2073656172636820686569676890
:100B3000743A20310A000A4E756D20582C593A201B
:100B4000352C350A0053746174653A200053206FC8
:100B50007574206F662072616E67652028302D35B0
:100B6000292E0A003344205072696E746572207217
:100B7000656164792E00526573756D696E672070CA
:100B800072696E74005761697420666F72207573A4
:100B900065722E2E2E004E6F206D6F76652E0045ED
:100BA0006E642066696C65206C6973740A00426526
:100BB00067696E2066696C65206C6973740A0053FE
:100BC00044207072696E74696E6720627974652062
:100BD000004E6F74205344207072696E74696E67A2
:100BE0000A002569730025696D2025697300256950
:100BF000682025696D2025697300256964202569B1
:100C0000682025696D20256973002569792025698B
:100C100064202569682025696D202569730050725C
:100C2000696E742074696D653A2000486561746965
:100C30006E672E2E2E003344205072696E746572DA
:100C40002072656164792E006F66660080037B0305
:100C500074036D035F0344454255473A004B494CCA
:100C60004C45442E20006F6B003344205072696E57
:100C7000746572204F66662E004649524D574152A8
:100C8000455F4E414D453A4D61726C696E20312E83
:100C9000312E302D524338202847697468756229F7
:100CA00020534F555243455F434F44455F55524C87
:100CB0003A68747470733A2F2F6769746875622E7E
:100CC000636F6D2F4D61726C696E4669726D7761ED
:100CD00072652F4D61726C696E2050524F544F43B4
:100CE0004F4C5F56455253494F4E3A312E30204DAE
:100CF000414348494E455F545950453A334420508A
:100D000072696E7465722045585452554445525F5D
:100D1000434F554E543A3120555549443A63656422
:100D200065326132662D343161322D343734382DDD
:100D3000396231322D633535633632663336376684
:100D4000660A004D31343520533C696E6465783E47
:100D5000206F7574206F662072616E676520283081
:100D60002D31290A0053657474696E6720547261CD
:100D700076656C20416363656C65726174696F6E42
:100D80003A200053657474696E672052657472610D
:100D9000637420416363656C65726174696F6E3A58
:100DA000200053657474696E67205072696E7420F8
:100DB000416363656C65726174696F6E3A200053BC
:100DC000657474696E67205072696E7420616E6418
:100DD0002054726176656C20416363656C65726155
:100DE00074696F6E3A20005A20456E6473746F7098
:100DF0002041646A7573746D656E74207365742028
:100E0000746F20286D6D293A0020643A0020693AF9
:100E10000020703A0043290A0061626C6564202852
:100E20006D696E2074656D702000436F6C64206581
:100E30007874727564657320617265200041637413
:100E40006976652045787472756465723A2000553C
:100E50006E6B6E6F776E20636F6D6D616E643A209E
:100E60002200526573656E643A20006F6B004A3150
:100E700035004A3233004B494C4C45442E20004B40
:100E8000494C4C45442E2000506C656173652072BE
:100E900065736574005052494E5445522048414C88
:100EA000544544005072696E7465722068616C74B8
:100EB00065642E206B696C6C28292063616C6C65FD
:100EC00064210A0000000000000088C0000000004B
:100ED0005761726E696E673A20486F6D696E672060
:100EE00042756D702044697669736F72203C2031C1
:100EF0000A000000A0400000A040000000400000E8
:100F00009B4300209D4300809843FFFFFF7C3C3EB5
:100F10005E2B3D3F2F5B5D3B2C2A225C00457272AD
:100F20006F722077726974696E6720746F2045450F
:100F300050524F4D210A00206279746573290A00CE
:100F400053657474696E67732053746F726564209F
:100F50002800454550524F4D20636865636B73759B
:100F60006D206D69736D617463680A002062797425
:100F70006573290A002073746F7265642073657449
:100F800074696E6773207265747269657665642032
:100F9000280048617264636F64656420446566611B
:100FA000756C742053657474696E6773204C6F613F
:100FB0006465640A0020204D3230302044300A003D
:100FC00020204D3230302044002044697361626C2F
:100FD00065640A0046696C616D656E7420736574A2
:100FE00074696E67733A0020440020490020204D48
:100FF00033303420500020440020490020204D335D
:1010000030312050005049442073657474696E6714
:10101000733A0A0020460020420020480020204D5C
:101020003134352053004D6174657269616C2068FC
:10103000656174757020706172616D65746572733D
:101040003A0A0020204D363636205A005A322045C2
:101050006E6473746F702061646A7573746D656E0D
:101060007420286D6D293A0A00205A00205900206A
:10107000204732392053332058002059002058008F
:1010800020204D3432302053004D65736820626556
:1010900064206C6576656C696E673A0A00205A00B8
:1010A00020590020204D323036205800486F6D65A1
:1010B000206F666673657420286D6D290A002045CF
:1010C00000205A00205900205800204200205400DF
:1010D00020204D323035205300416476616E6365C7
:1010E00064207661726961626C65733A20533D4D8C
:1010F000696E20666565647261746520286D6D2F68
:1011000073292C20543D4D696E2074726176656C94
:1011100020666565647261746520286D6D2F732982
:101120002C20423D6D696E696D756D207365676D2C
:10113000656E742074696D6520286D73292C2058A4
:101140003D6D6178696D756D205859206A65726BC7
:1011500020286D6D2F73292C20205A3D6D617869F0
:101160006D756D205A206A65726B20286D6D2F7326
:10117000292C2020453D6D6178696D756D204520D5
:101180006A65726B20286D6D2F73290A0020540048
:1011900020520020204D32303420500041636365DE
:1011A0006C65726174696F6E733A20503D7072693C
:1011B0006E74696E672C20523D726574726163743F
:1011C00020616E6420543D74726176656C0A002063
:1011D0004500205A0020590020204D32303120583F
:1011E000004D6178696D756D20416363656C657252
:1011F0006174696F6E20286D6D2F7332293A0A0071
:10120000204500205A0020590020204D3230332044
:1012100058004D6178696D756D2066656564726111
:1012200074657320286D6D2F73293A0A00204500DC
:10123000205A0020590020204D3932205800537484
:101240006570732070657220756E69743A0A007A51
:10125000325F6D696E3A20007A5F6D696E3A2000E8
:10126000795F6D696E3A2000785F6D696E3A200093
:101270005265706F7274696E6720656E6473746F07
:1012800070207374617475730A0020746F6F206C22
:101290006F6E6720657874727573696F6E207072F7
:1012A0006576656E7465640A004A31330020636FA9
:1012B0006C6420657874727573696F6E20707265E6
:1012C00076656E7465640A0024F4D43050C38E20B1
:1012D000C2A24017828B7011127A910D816CD90ACB
:1012E000A861E108C7586607615143061E4B5D05BA
:1012F000C145A7041A411104093D9803713931030E
:101300004036DB0265339102D4305402802E1D0238
:10131000632CEE01752AC501B028A00110278101B8
:101320008F2564012B244B01E0223401AC211F01E5
:101330008D200D01801FFC00841EED00971DDF0035
:10134000B81CD200E61BC600201BBC00641AB20009
:10135000B219A8000A19A0006A189900D1179100C3
:1013600040178B00B516840031167E00B315790046
:101370003A157300C7146F0058146A00EE13660024
:101380008813630025135E00C7125B006C125700C0
:1013900015125400C111510070114F0021114B0062
:1013A000D61049008D10470046104400021042003C
:1013B000C00F4000800F3E00420F3C00060F3B0074
:1013C000CB0E3800930E37005C0E3500270E34002C
:1013D000F30D3200C10D3100900D3000600D2E0074
:1013E000320D2D00050D2C00D90C2B00AE0C290060
:1013F000850C29005C0C2700350C27000E0C2600FC
:10140000E80B2400C40B2400A00B23007D0B230059
:101410005A0B2100390B2100180B2000F80A1F007D
:10142000D90A1E00BB0A1E009D0A1D00800A1D006D
:10143000630A1C00470A1B002C0A1B00110A1A0031
:10144000F7091A00DD091900C4091900AB091900D0
:10145000920917007B091800630917004C09160050
:1014600036091600200916000A091500F5081500AE
:10147000E0081400CC081400B8081400A4081400F4
:10148000900813007D0812006B0813005808120022
:101490004608120034081100230811001208110038
:1014A00001081100F0071000E0071000D00710003D
:1014B000C0071000B0070F00A107100091070E0031
:1014C00083070F0074070F0065070E0057070E0013
:1014D00049070E003B070D002E070E0020070D00E8
:1014E00013070D0006070D00F9060C00ED060D00B0
:1014F000E0060C00D4060C00C8060C00BC060C006C
:10150000B0060C00A4060B0099060C008D060B001B
:1015100082060B0077060B006C060B0061060A00C2
:1015200057060B004C060A0042060A0038060A005D
:101530002E060A0024060A001A060A0010060900F0
:1015400007060A00FD050900F4050900EB0509007E
:10155000E2050900D9050900D0050900C705090001
:10156000BE050900B5050800AD050800A505090080
:101570009C050800940508008C05080084050800F7
:101580007C050800740508006C0507006505080067
:101590005D050700560508004E05070047050700D2
:1015A0004005080038050700310507002A05070037
:1015B000230507001C050600160507000F05070098
:1015C0000805060002050700FB040600F5040700F5
:1015D000EE040600E8040600E2040700DB0406004F
:1015E000D5040600CF040600C9040600C3040600A3
:1015F000BD040600B7040600B1040500AC040600F3
:10160000A6040600A00405009B040600950405003E
:10161000900406008A040500850405008004060085
:101620007A04050075040500700405006B040500CC
:1016300066040500610405005C040500570405000C
:10164000520405004D04050048040500430405004C
:101650003E0404003A04050035040500300404008B
:101660002C04050027040400230405001E040400C4
:101670001A04040016040500110404000D040400FB
:10168000090405000404040000040400FC03040031
:10169000F8030400F4030400F0030400EC03040066
:1016A000E8030400E4030400E0030400DC03040096
:1016B000D8030400D4030400D0030400CC030400C6
:1016C000C8030300C503030024F404D9201BC40C81
:1016D0005C0E9804C4095F0265077101F405F90006
:1016E000FB04B30048048700C10369005803550098
:1016F00003034500BE023A008402310053022A006F
:101700002902250004022000E4011C00C801190080
:10171000AF0117009801140084011300710110003B
:101720006101100051010E0043010D0036010B0054
:101730002B010B0020010B00150109000C01090011
:1017400003010800FB000800F3000800EB0007009D
:10175000E4000600DE000600D8000600D200060005
:10176000CC000500C7000500C2000500BD00040054
:10177000B9000400B5000400B1000400AD0004008D
:10178000A9000400A5000300A20003009F000400BC
:101790009B000300980003009500020093000300E3
:1017A000900003008D0002008B00030088000200FF
:1017B0008600020084000300810002007F00020016
:1017C0007D0002007B00020079000200770001002A
:1017D0007600020074000200720001007100020035
:1017E0006F0002006D0001006C0002006A00010041
:1017F0006900020067000100660001006500010049
:10180000640002006200010061000100600001004C
:101810005F0002005D0001005C0001005B00010050
:101820005A00010059000100580001005700010052
:101830005600010055000100540001005300000053
:10184000530001005200010051000100500001004E
:101850004F0001004E0000004E0001004D0001004D
:101860004C0001004B0000004B0001004A00010049
:101870004900010048000000480001004700010045
:101880004600000046000100450000004500010040
:10189000440001004300000043000100420000003A
:1018A0004200010041000000410001004000010031
:1018B0003F0000003F0001003E0000003E0001002C
:1018C0003D0000003D0001003C0000003C00000025
:1018D0003C0001003B0000003B0001003A0000001A
:1018E0003A00010039000000390001003800000012
:1018F0003800000038000100370000003700010008
:1019000036000000360000003600010035000000FF
:1019100035000000350001003400000034000000F4
:1019200034000100330000003300000033000100E8
:1019300032000000320000003200010031000000DF
:1019400031000000310001003000000030000000D4
:10195000300001002F0000002F0000002F000000C9
:101960002F0001002E0000002E0000002E000100BC
:101970002D0000002D0000002D0000002D000100B2
:101980002C0000002C0000002C0000002C000100A6
:101990002B0000002B0000002B0000002B0001009A
:1019A0002A0000002A0000002A0000002A0001008E
:1019B0002900000029000000290000002900000083
:1019C0002900010028000000280000002800000075
:1019D0002800000028000100270000002700000068
:1019E000270000002700000027000100260000005B
:1019F000260000002600000026000000260001004E
:101A00002500000025000000250000002500000042
:101A10002500000025000100240000002400000033
:101A20002400000024000000240001002300000026
:101A3000230000002300000023000000230000001A
:101A4000230000002300010022000000220000000B
:101A500022000000220000002200000022000100FD
:101A600021000000210000002100000021000000F2
:101A700021000000210000002100010020000000E2
:101A800020000000200000002000000020000000D6
:101A90002000000020000000200001001F000000C6
:101AA0001F0000001F0000001F0000001F000000BA
:101AB0001F0000001F0001001E0000001E000000AB
:101AC0001E0000001E0000004D3834205820592010
:101AD0005A2045006265640A002C2073797374658E
:101AE0006D2073746F707065642120486561746542
:101AF000725F49443A200048656174696E672066E8
:101B000061696C65640048656174696E672066612F
:101B1000696C65640048656174696E672066616917
:101B20006C65640048656174696E67206661696C04
:101B30006564004A31300070012C0190012701B02A
:101B4000012201C0011D01F0011801100213013032
:101B5000020E016002090190020401C002FF0000B0
:101B600003FA004003F5008003F000D003EB0020EF
:101B700004E6007004E100E004DC004005D700C08A
:101B800005D2004006CD00D006C8008007C3003053
:101B900008BE00F008B900C009B400B00AAF00B038
:101BA0000BAA00D00CA500000EA000500F9B00C097
:101BB0001096005012910000148C00C0158700B0E0
:101BC000178200B0197D00D01B7800001E73004002
:101BD000206E0090226900F024640040275F00908E
:101BE000295A00E02B5500102E500020304B0010D9
:101BF000324600E033410090353C0010373700702A
:101C0000383200A0392D00B03A2800A03B230060F4
:101C10003C1E00103D1900903D1400103E0F007056
:101C20003E0A00C03E0500003F0000544845524DAA
:101C3000414C2052554E4157415900546865726DD0
:101C4000616C2052756E61776179004A31300045D0
:101C500072723A204D415854454D5020424544003F
:101C60004572723A204D415854454D50004D4158EF
:101C700054454D502074726967676572656400450C
:101C800072723A204D494E54454D50204245440011
:101C90004572723A204D494E54454D50004D494EC3
:101CA00054454D50207472696767657265640025FC
:101CB000753A2530327500253032753A2530327547
:101CC000002D2D2D005344005A00590058000120CA
:101CD000000120004E6F2053442063617264005065
:101CE00072696E742066726F6D2053440053746F76
:101CF00070207072696E7400526573756D65207026
:101D000072696E74005061757365207072696E74CB
:101D100000436F6E74726F6C005072657061726513
:101D20000054756E6500496E666F20736372656559
:101D30006E004D363030004368616E67652066691D
:101D40006C616D656E7400466C6F7700466C6F77E2
:101D50000046616E2073706565640046616E207395
:101D6000706565640042656400426564004E6F7A88
:101D70007A6C65004E6F7A7A6C6500426564205A11
:101D800000426564205A00537065656400537065B5
:101D90006564004D61696E0050726568656174200C
:101DA000504C412042656400507265686561742042
:101DB000504C4100507265706172650050726568E8
:101DC0006561742041425320426564005072656829
:101DD0006561742041425300507265706172650004
:101DE0004C6576656C696E6720446F6E6521004DA9
:101DF0006F7665205A00473238004E65787420505F
:101E00006F696E74002569202F20257500436C6969
:101E1000636B20746F20426567696E00486F6D695F
:101E20006E672058595A00473238004C6576656C09
:101E3000206265640043616E63656C004D34323826
:101E400000436F6F6C646F776E00507265686561F8
:101E50007420414253005072656865617420504C93
:101E600041004D38340044697361626C65207374BD
:101E7000657070657273004D6F7665206178697367
:101E8000004C6576656C206265640053657420685B
:101E90006F6D65206F666673657473004732380036
:101EA0004175746F20686F6D65004D61696E004DFE
:101EB0006F76652058004D6F76652059004D6F761E
:101EC00065205A00457874727564657200457874AF
:101ED0007275646572004D6F7665205A004D6F769D
:101EE000652059004D6F76652058004D6F7665204E
:101EF00061786973004D6F766520302E316D6D000D
:101F00004D6F766520316D6D004D6F7665203130F7
:101F10006D6D005072657061726500526573746F0B
:101F20007265206661696C73616665004C6F6164FF
:101F3000206D656D6F72790053746F7265206D65E9
:101F40006D6F72790046696C616D656E74004D6FDE
:101F500074696F6E0054656D706572617475726539
:101F6000004D61696E005072656865617420414280
:101F70005320636F6E66005072656865617420500F
:101F80004C4120636F6E66005049442D4400504917
:101F9000442D49005049442D5000200220466163E1
:101FA00074002002204D6178002002204D696E00EF
:101FB0004F6666004F6E20004175746F74656D70DA
:101FC0000046616E20737065656400426564004E72
:101FD0006F7A7A6C6500436F6E74726F6C00537425
:101FE0006F7265206D656D6F727900426564004E99
:101FF0006F7A7A6C650046616E2073706565640067
:1020000054656D70657261747572650045737465B1
:1020100070732F6D6D005A73746570732F6D6D0042
:102020005973746570732F6D6D0058737465707398
:102030002F6D6D00412D74726176656C00412D72BB
:1020400065747261637400416D6178204500416D73
:102050006178205A00416D6178205900416D6178A6
:102060002058005654726176206D696E00566D6975
:102070006E00566D6178204500566D6178205A00DB
:10208000566D6178205900566D617820580056656C
:102090002D6A65726B00567A2D6A65726B005679EF
:1020A0002D6A65726B0056782D6A65726B0041630C
:1020B00063656C00426564205A00436F6E74726FF2
:1020C0006C0046696C2E204469612E004F666600E4
:1020D0004F6E20004520696E206D6D3300436F6E9A
:1020E00074726F6C00052E2E004D61696E0045788C
:1020F0007472756465206D6F726500526573756DDD
:1021000065207072696E74004348414E4745204F08
:102110005054494F4E533A006368616E6765006FD3
:1021200066207468652066696C616D656E74005721
:1021300061697420666F7220737461727400434821
:10214000414E47452046494C414D454E5400666935
:102150006C616D656E7420756E6C6F6164005761A3
:10216000697420666F72004348414E4745204649D6
:102170004C414D454E5400746F20636F6E74696E10
:1021800075652E2E2E00616E64207072657373204B
:10219000627574746F6E00496E736572742066693F
:1021A0006C616D656E74004348414E474520464959
:1021B0004C414D454E540066696C616D656E7420EE
:1021C0006C6F6164005761697420666F72004348E8
:1021D000414E47452046494C414D454E54006669A5
:1021E0006C616D656E7420657874727564650057F6
:1021F00061697420666F72004348414E474520462E
:10220000494C414D454E5400746F20726573756D95
:1022100065005761697420666F72207072696E7410
:10222000004348414E47452046494C414D454E5498
:10223000004A303100436172642072656D6F7665CB
:1022400064004A3030004361726420696E736572C5
:102250007465640000002100240027002A002D007E
:102260003000330001010000040107010A010000F1
:1022700020002300260029002C002F00320000013E
:10228000000003010601090100000A0B02090C0D00
:102290000E08070304010000000000000000000019
:1022A000000000000000000000000000000000002E
:1022B00000000000121110000000000000000000EB
:1022C00000000000000000000000000000002020CE
:1022D000506C616E6E6572427566666572427974A5
:1022E00065733A20002046726565204D656D6F72FA
:1022F000793A2000436F6D70696C65643A204E6FC7
:102300007620203320323032310A00207C20417583
:1023100074686F723A20284A6F6C6C792C20787838
:102320007878787878782E434F2E290A0032303129
:10233000362D31322D30362031323A303000204CBB
:1023400061737420557064617465643A2000312EA5
:10235000312E302D5243380A0056312E322E360A95
:102360000020536F667477617265205265736574DF
:102370000A00205761746368646F67205265736553
:10238000740A002042726F776E206F757420526558
:102390007365740A002045787465726E616C205212
:1023A000657365740A00506F77657255700A004A4C
:1023B0003132004A31370073746172740A00473158
:1023C000205A2B323000473931006572726F72200B
:1023D00077726974696E6720746F2066696C650A2C
:1023E000004A3132004A3033004A313800446F6EBF
:1023F0006520736176696E672066696C652E0A00D8
:102400004D32390057726974696E6720746F2066A7
:10241000696C653A20004A3231006F70656E206643
:1024200061696C65642C2046696C653A20004A320B
:1024300031006F70656E206661696C65642C2046A2
:10244000696C653A20004A32300046696C65207339
:10245000656C65637465640A002053697A653A2087
:102460000046696C65206F70656E65643A20004AAD
:102470003231006F70656E206661696C65642C2076
:1024800046696C653A20002066696C653A20004E0A
:102490006F7720002220706F7300222070617265B8
:1024A0006E743A2200535542524F5554494E4520BE
:1024B00043414C4C207461726765743A22004B4969
:1024C0004C4C45442E2000747279696E6720746FFD
:1024D0002063616C6C207375622D67636F64652087
:1024E00066696C6573207769746820746F6F206DFE
:1024F000616E79206C6576656C732E204D41582095
:102500006C6576656C2069733A0047393000473155
:10251000205A2D3230006175746F25692E67004D89
:102520003234004D323320257300656E7175657548
:1025300065696E6720220053442063617264206FD6
:102540006B0A006F70656E526F6F74206661696C04
:1025500065640A00766F6C756D652E696E6974200E
:102560006661696C65640A004572726F723A005365
:102570004420696E6974206661696C0A006563684D
:102580006F3A00010210202008081020401020405F
:102590008002010201080402010102040810204027
:1025A0008080402010080402018004020180402045
:1025B000100804020108040201010204081020406E
:1025C000800102040810204080000022002500281D
:1025D000002B002E0031003400020100000501082C
:1025E000010B010505050507050808080802020298
:1025F000020A0A080804040404010101010101019E
:10260000010303030303030303040707070C0C0C74
:102610000C0C0C0C0C02020202060606060606064C
:10262000060B0B0B0B0B0B0B0B0285D667D611247D
:102630001FBECFEFD1E2DEBFCDBF00E00CBF14E084
:10264000A0E0B2E0E6E4F4ED01E00BBF02C00790C9
:102650000D92A23CB107D9F726E1A2ECB4E001C08B
:102660001D92A335B207E1F713E1C6E1D3E100E023
:1026700006C021970109802FFE010E9468E9C5313B
:10268000D10780E00807A9F70E94CFD70C9411EA80
:102690000C940000880F991F880F991FFC01E055CA
:1026A000F04F40815181628173818454934FFC01CA
:1026B0004083518362837383E091BA0CF091BB0C29
:1026C00082899389A489B5898093B60C9093B70CBD
:1026D000A093B80CB093B90C0895CF93DF932FB7A4
:1026E000F894AC01440F551F440F551FFA01E055F3
:1026F000F04F60817181828193812FBFEA01CA55B9
:10270000D34F0E94D8E1288139814A815B810E94A0
:1027100037E2DF91CF91089590912712809128128E
:10272000981731F0809128128F5F8F708093281254
:102730000895CF93DF93FC0126853785D901A05CEE
:10274000BF4F8D919C91119701968F739927E90145
:10275000CE5BDF4F4881598148175907D9F34D9116
:102760005C91240F351FD9016C93A685B785A05CB9
:10277000BF4F11969C938E93A689B7898C91978DA4
:1027800021E030E001C0220F9A95EAF7822B8C936A
:1027900081E081A30488F589E02D808180648083B5
:1027A00081E090E0DF91CF910895FC0191A1992300
:1027B00029F0A489B5898C9186FFF9CF11A20895DB
:1027C000DC011C968D919C91FC01E05CFF4F4081E7
:1027D00051813296208131814217530781F0208147
:1027E0003181820F931FDC018C91208131812F5F19
:1027F0003F4F2F7333273183208390E008958FEF6D
:102800009FEF0895FC0184859585FC01E05CFF4FF6
:10281000408151813296208131814217530741F026
:1028200020813181820F931FFC01808190E0089507
:102830008FEF9FEF0895FC0124853585F901E05C59
:10284000FF4F808191812E5B3F4FF90120813181C3
:10285000805C9F4F821B930B60E470E00E9435E91F
:1028600008958091CE07811116C0209113023091F6
:10287000140240911502509116026091E711709177
:10288000E8118091E9119091EA110E94D1E1881F2D
:102890008827881F089580E008955F9AEEEEFDE096
:1028A00010828A9A479A11829FB7F894A8E0B1E003
:1028B0008C9181608C939FBF479A1282129A0895DF
:1028C000CF92DF92EF92FF92C090A602D090A70223
:1028D000E090A802F090A9028091D70D8823B1F171
:1028E00020E030E0A901C701B6010E94D1E18823B0
:1028F00069F12BED3FE049E450E4C701B6010E94C5
:1029000037E220E030E040E05FE30E9437E2A701D9
:1029100096010E9437E220E030E040E05FE30E9451
:1029200037E29B01AC0160E070E080E89FE30E9429
:10293000FBE660931702709318028093190290933C
:102940001A02FF90EF90DF90CF90089560E070E062
:1029500080E89FE3EECFCF93DF9390E080E00E948A
:102960006D13C4E7D7E0688379838A839B8381E012
:1029700090E00E946D136C837D838E839F8382E041
:1029800090E00E946D13688779878A879B87DF9123
:10299000CF910895CF92DF92EF92FF92CF93DF9382
:1029A000EC01C0908102D0908202E0908302F0900E
:1029B0008402A7019601688179818A819B810E94A6
:1029C000D1E187FF04C0C882D982EA82FB82C0902D
:1029D0008502D0908602E0908702F0908802A701DD
:1029E00096016C817D818E819F810E94D1E187FF5C
:1029F00004C0CC82DD82EE82FF82C0908902D0903A
:102A00008A02E0908B02F0908C02A7019601688503
:102A100079858A859B850E94D1E187FF04C0C8869D
:102A2000D986EA86FB86C0907502D0907602E09047
:102A30007702F0907802A7019601688179818A81F6
:102A40009B810E9461E8181624F4C882D982EA8228
:102A5000FB82C0907902D0907A02E0907B02F090E5
:102A60007C02A70196016C817D818E819F810E94ED
:102A700061E8181624F4CC82DD82EE82FF82C090D9
:102A80007D02D0907E02E0907F02F0908002A7014C
:102A90009601688579858A859B850E9461E818166C
:102AA00024F4C886D986EA86FB86DF91CF91FF9011
:102AB000EF90DF90CF90089580E1E3EAF7E0AAE19C
:102AC000BEE001900D928A95E1F70895CF92DF92D2
:102AD000EF92FF920F931F93CF93DF93EC01CC0FF4
:102AE000DD1FCC0FDD1FFE01EF50F24F20E030E084
:102AF000A90160817181828193810E9401E6FE01BA
:102B0000E254F84F20813181428153810E9401E6D5
:102B10006B017C01FE01EE52F94F259135914591F3
:102B200054918E010F571D4F0E9401E6F8016083FA
:102B3000718382839383FE01EA53F94F2591359186
:102B400045915491CB58DD4FC701B6010E9401E673
:102B5000688379838A839B83DF91CF911F910F9143
:102B6000FF90EF90DF90CF9008958F929F92AF9259
:102B7000BF92EF92FF920F931F93CF93DF938C013D
:102B80004A015B01EC01CC0FDD1FCC0FDD1FCE0134
:102B9000865E914F7C01CF50D24F288139814A8186
:102BA0005B81CB01B4010E9400E6F70120813181F5
:102BB000428153810E9401E6F70160837183828321
:102BC000938388829982AA82BB82C801DF91CF91C8
:102BD0001F910F91FF90EF90BF90AF909F908F90BB
:102BE0000C9466158091271290912812891B8F7082
:102BF0000895089590E080E008958FB7F89490913B
:102C00006F0720916E07291769F0E92FF0E0E25174
:102C1000F94F208130E09F5F9F7790936F078FBFC0
:102C2000C90108952FEF3FEFFACF0E9426BE6093AF
:102C30009B0770939C0780939D0790939E07089530
:102C40008AE193E10E94D5130C9415160F931F93FC
:102C5000CF93DF93EC010E9426BE0E811F81288551
:102C60003985011511052105310579F52C852223BA
:102C700039F1EA8521502C8721E02E0F2A873D85E6
:102C8000231301C01A86F0E03196EE0FFF1FEE0FFE
:102C9000FF1FEC0FFD1F02851385248535850A83F0
:102CA0001B832C833D83600F711F811D911D6E83DB
:102CB0007F83888799878C819D81892B09F0469A2B
:102CC000DF91CF911F910F910895601B710B820BC3
:102CD000930B97FDF5CF46981E821F8218861986A2
:102CE000EFCF0C9432BE1092820D6091E51170917D
:102CF000E611072E000C880B990B0E94D8E1209159
:102D0000A2023091A3024091A4025091A5020E9418
:102D100061E8181634F41092E6111092E5110C9443
:102D200032BE08954F925F926F927F92AF92BF92A0
:102D3000CF92DF92EF92FF920F931F93CF93DF9387
:102D40008C01EB01FC0147A050A461A472A4AFA0C8
:102D5000B8A4C9A4DAA49501A601C301B2010E94D6
:102D6000D1E187FF3EC0A3019201C301B2010E94DD
:102D700037E22B013C01F80163A974A985A996A942
:102D800090589B01AC010E9401E6F80127A530A9EB
:102D900041A952A90E9437E29B01AC01C301B201D3
:102DA0000E9400E60E94AFE87B018C019B01AC0110
:102DB000B501C6010E94D1E187FF02C075018601FD
:102DC0009701A801B501C6010E94D1E1882349F00D
:102DD000C701D8018FA398A7A9A7BAA78881816046
:102DE0008883DF91CF911F910F91FF90EF90DF903B
:102DF000CF90BF90AF907F906F905F904F9008956D
:102E00004F925F926F927F928F929F92AF92BF92FA
:102E1000CF92DF92EF92FF920F931F93CF93DF93A6
:102E2000CDB7DEB72C970FB6F894DEBF0FBECDBF7F
:102E30008C01C090CA07D090CB07E090CC07F090EF
:102E4000CD0720E030E0A901C701B6010E94D1E121
:102E5000882311F12091F90D3091FA0D4091FB0D6D
:102E60005091FC0DF80160857185828593850E94E3
:102E700000E62091C6073091C7074091C8075091DE
:102E8000C9070E9400E69B01AC01C701B6010E9480
:102E9000D1E118160CF086C08091291281FF82C002
:102EA00080E090E0A0E8BFE389879A87AB87BC8782
:102EB0002091F50D3091F60D4091F70D5091F80DE0
:102EC000F80164817581868197810E9400E62091D6
:102ED000C2073091C3074091C4075091C5070E94B3
:102EE00000E66D837E838F8398872091F10D30916A
:102EF000F20D4091F30D5091F40DF8016081718154
:102F0000828193810E9400E62091BE073091BF0725
:102F10004091C0075091C1070E9400E669837A83FF
:102F20008B839C83AE01475F5F4FBE016B5F7F4F1A
:102F3000CE0101960E9419AD4B015C012091F90D63
:102F40003091FA0D4091FB0D5091FC0DF801608518
:102F50007185828593850E9400E62091C607309195
:102F6000C7074091C8075091C9070E9400E6A50114
:102F700094010E9400E6A70196010E9437E22B010E
:102F80003C01A5019401C701B6010E9400E69B0126
:102F9000AC01C301B2010E94FBE6F80160877187B2
:102FA000828793872C960FB6F894DEBF0FBECDBFF5
:102FB000DF91CF911F910F91FF90EF90DF90CF9015
:102FC000BF90AF909F908F907F906F905F904F9049
:102FD00008954F925F926F927F928F929F92AF92DD
:102FE000BF92CF92DF92EF92FF92CF93DF93CDB754
:102FF000DEB76A970FB6F894DEBF0FBECDBF9A8FCB
:10300000898F5B014A01DC01D7966D917D918D918D
:103010009C91DA970E94D6E16B017C01F501208139
:103020003181428153810E9437E20E94DFE60E9493
:1030300074E73B015C01D4012D913D914D915C9170
:10304000C701B6010E9437E20E94DFE60E9474E7E2
:103050006D827E82AF82B8862D813E814F815885F8
:10306000283731054105510540F428E730E040E0BC
:1030700050E02D833E834F83588769837A838B8307
:103080009C8389819A81AB81BC8188379105A10598
:10309000B10540F428E730E040E050E029833A836E
:1030A0004B835C83E98DFA8DED5BFF4F80819181CD
:1030B000A281B3818D879E87AF87B88BBC01CD017C
:1030C0000E94D8E169877A878B879C876D817E8192
:1030D0008F8198850E94D6E1698B7A8B8B8B9C8B34
:1030E00020E030E0A90169857A858B859C850E9466
:1030F000D1E1882309F432C1A7019601C701B601C5
:103100000E9437E24B015C0129893A894B895C892D
:10311000CA01B9010E9437E29B01AC01C501B401AB
:103120000E9400E64B015C0129853A854B855C8550
:10313000CA01B9010E9401E69B01AC01C501B401BD
:103140000E94FBE60E94DFE60E946DE72B013C0136
:103150006D857E858F859889909580957095619510
:103160007F4F8F4F9F4F0E94D8E14B015C016981D7
:103170007A818B819C810E94D6E16D877E878F87C3
:10318000988B20E030E0A901C501B4010E94D1E193
:10319000882309F4E7C02D853E854F855889CA01EB
:1031A000B9010E9437E26D8B7E8B8F8B988FA701C0
:1031B0009601C701B6010E9437E29B01AC016D89FF
:1031C0007E898F89988D0E9400E66B017C01A501A4
:1031D0009401C501B4010E9401E69B01AC01C70145
:1031E000B6010E94FBE60E94A3E7A98DBA8D529614
:1031F0008D909D90AD90BC90559775016401C41859
:10320000D508E608F7080E946DE7C61AD70AE80A4B
:10321000F90AF7FE67C020E030E0A90169857A85E8
:103220008B859C850E94D1E1882309F49FC0C5014C
:10323000B4010E94D6E16B017C0129853A854B855A
:103240005C85CA01B9010E9401E69B01AC01C7017E
:10325000B6010E9437E26B017C0129893A894B89CA
:103260005C89CA01B9010E9437E29B01AC01C70128
:10327000B6010E9400E66B017C012D853E854F85DD
:103280005889CA01B9010E9437E29B01AC01C7010C
:10329000B6010E9401E66B017C0120E030E040E8CD
:1032A00050E469857A858B859C850E9437E29B0175
:1032B000AC01C701B6010E94FBE60E94DFE60E9456
:1032C0006DE72B013C0177FE03C0412C512C3201EC
:1032D000481459046A047B0410F024013501C12C00
:1032E000D12C76018FB7F894E98DFA8D908193FDFA
:1032F0001FC0DF01468A578A608E718EC40CD51CB0
:10330000E61CF71CC28ED38EE48EF58E2D813E8195
:103310004F81588523AF34AF45AF56AFDF96298133
:103320003A814B815C812D933D934D935C93139730
:103330008FBF6A960FB6F894DEBF0FBECDBFDF9188
:10334000CF91FF90EF90DF90CF90BF90AF909F9084
:103350008F907F906F905F904F90089560E070E045
:10336000CB01F0CE60E070E0CB013DCF60E070E0DB
:10337000CB01A3CF682F880F770B8091EA0690913D
:10338000EB060E94BFE99C019093DD068093DC066A
:1033900081E0232B09F480E00895682F880F770BD4
:1033A000209153063091540640E6429FC001439F4E
:1033B000900D112484539B4F0E94BFE99C01909370
:1033C000CB048093CA0481E0232B09F480E00895A4
:1033D0008091DC069091DD064AE050E070E060E00C
:1033E00001960E9426DF97FD1EC08091DC06909119
:1033F000DD064AE050E070E060E001960E9426DFC2
:103400006F3F71058105910509F07CF48091DC0620
:103410009091DD064AE050E070E060E001960E9485
:1034200026DF862F089580E008958FEF0895E091BC
:10343000DC06F091DD068181DF01129621E030E0AB
:10344000803221F42F5F3F4F8D91FACF8D3211F0F2
:103450008B3231F42F5F3F4FDF01A20FB31F8C91EE
:103460008E3219F4E20FF31F8181805391E08A308C
:1034700030F40E94E81991E0811101C090E0892F99
:1034800008958091DC069091DD064AE050E070E0FE
:1034900060E001960E9426DFCB0108958091DC0652
:1034A0009091DD064AE050E070E060E001960C94F7
:1034B00054E00F931F93CF93DF93C091DC06D0911C
:1034C000DD0665E470E0CE010E94BFE98C01CE010B
:1034D00001960115110571F0F801108270E060E0AD
:1034E0000E94C8DD25E4F8012083DF91CF911F9170
:1034F0000F91089570E060E0DF91CF911F910F91DF
:103500000C94C8DD86E40E94BA198093820D88234A
:1035100051F00E94591A60939A0270939B02809313
:103520009C0290939D0283E50E94BA19882351F072
:103530000E94591A6093A2027093A3028093A4027E
:103540009093A50282E40E94BA19882351F00E9448
:10355000591A60939E0270939F028093A0029093E9
:10356000A1020895CF92DF92EF92FF920F931F93E3
:10357000CF93DF9389E3C82E83E0D82E93EAE92E18
:1035800097E0F92E0AE11EE0D0E0C0E0F60181915B
:103590006F010E94BA19882309F44EC00E94591A7B
:1035A0009B01AC01FE01EB51F94F8081811104C0F8
:1035B0008091E9068823E1F1F801608171818281BF
:1035C00093810E9401E6F701608371838283938374
:1035D0002196F4E0EF0EF11C0C5F1F4FC430D105B3
:1035E000A9F686E40E94BA198823C9F00E94591AE4
:1035F00020E030E0A9010E9461E8181684F40E94DE
:10360000591A20E030E040E752E40E94FBE6609364
:103610000002709301028093020290930302DF91F3
:10362000CF911F910F91FF90EF90DF90CF90089571
:1036300060E070E0CB01C5CFF80180819181A2816B
:10364000B381F70180839183A283B383C1CF80913B
:10365000CA049091CB0470E060E001960C94C8DD40
:103660000C9426BE8091690D8A30D8F496E0899F2B
:10367000F0011124E35DF24F2091C2023091C302A8
:10368000318320834091060E5091070E6091080E01
:103690007091090E42835383648375838F5F809397
:1036A000690D08952091C2023091C302281739078D
:1036B000C9F09093C3028093C2024093060E5093C8
:1036C000070E6093080E7093090E8C5A904211F405
:1036D0001092690D0E9460B482E08093C10281E083
:1036E0008093DA0D089540E050E0BA018CEA90E250
:1036F0000C94521BE091690DEE2389F0E150E093A8
:10370000690D86E0E89FF0011124E35DF24F4281EC
:10371000538164817581808191810C94521B0C943A
:10372000731BEF92FF920F93CF93DF93D82F7A0101
:10373000C22F80E00E9451B4D11101C0C0E26C2FB1
:103740008BEE91E10E9405B2C2E1F701649166231C
:1037500059F0CC2389F08BEE91E10E9468B4C150FE
:10376000FFEFEF1AFF0AF1CFC15030F060E28BEEAD
:1037700091E10E9405B2F8CF602F8BEE91E1DF91CD
:10378000CF910F91FF90EF900C9405B2CF92DF9202
:10379000EF92FF920F931F93CF93DF938091060ECA
:1037A0009091070EA091080EB091090E81309048BB
:1037B000A105B10540F01092060E1092070E10926E
:1037C000080E1092090E6091060E7091070E8091FE
:1037D000080E9091090E25E030E040E050E00E9494
:1037E000C4E5C22F80917C0D1816F4F4482F082EE2
:1037F000000C550B41505109022E000C330B2417BD
:10380000350794F0CFEFC80F25E0C29FC001112407
:10381000092E000CAA0BBB0B8093060E9093070E8B
:10382000A093080EB093090E1092DA0D8091DB0D73
:10383000C81714F4C093DB0D8091DB0D082E000C2B
:10384000990B03962C2F0C2E000C330B8217930729
:1038500024F48DEF8C0F8093DB0DD091DB0DED2EDA
:1038600084E0F82EFD0E1091DD0DD12ECD2EC194E9
:10387000D11128C08091C102882351F081E0C1118B
:1038800080E003E023E045E35EE16C2D0E94911BA4
:10389000D11007C0DF5FFD12EBCF82E080937C0D7B
:1038A00008C0C111F7CF0E947A1B8091DA0D8823DE
:1038B00089F3DF91CF911F910F91FF90EF90DF90EF
:1038C000CF900895D13031F78091C102882361F003
:1038D0006D2F6E1981E0C13009F080E00EE32EE318
:1038E0004BE25EE10E94911B1123A1F2C13091F6DF
:1038F0008EEE95E30E942CCAD8CF4F925F926F92C2
:103900007F92AF92BF92CF92DF92EF92FF920F938E
:103910001F93CF93DF938091060E9091070EA09195
:10392000080EB091090E81309048A105B10540F014
:103930001092060E1092070E1092080E1092090EA9
:103940006091060E7091070E8091080E9091090EFD
:1039500025E030E040E050E00E94C4E5C22F8091B5
:10396000750D1816F4F4482F082E000C550B415015
:103970005109022E000C330B2417350794F0CFEFBA
:10398000C80F25E0C29FC0011124092E000CAA0B0C
:10399000BB0B8093060E9093070EA093080EB09376
:1039A000090E1092DA0D8091DB0DC81714F4C09344
:1039B000DB0D8091DB0D082E000C990B03962C2F4C
:1039C0000C2E000C330B8217930724F48DEF8C0F11
:1039D0008093DB0DD091DB0DED2E84E0D82EDD0E33
:1039E000F090DD0DCF2CBF2CAD2EA194D11129C0AC
:1039F0008091C102882351F081E0C11180E003E091
:103A000023E044EB5DE16A2D0E94911BBB2009F489
:103A100079C0C11177C00E947A1B8091DA0D88238A
:103A200009F470C0DF91CF911F910F91FF90EF903B
:103A3000DF90CF90BF90AF907F906F905F904F904E
:103A40000895D130A9F58091C102882361F06D2FCE
:103A50006E1981E0C13009F080E000E22EE348EA0F
:103A60005DE10E94911BCC2009F44CC0C13009F0EB
:103A700049C000918B0D10918C0D6091830D709158
:103A8000840D072E000C880B990B0E94D8E12B01A6
:103A90003C016091870D7091880D072E000C880BFA
:103AA000990B0E94D8E1A30192010E9480BEB5CF7C
:103AB000D23041F58091C102882361F06D2F6E19DB
:103AC00081E0C23009F080E000E22EE348E95DE1E8
:103AD0000E94911BFF20B1F0C230A1F400918B0D28
:103AE00010918C0D6091830D7091840D072E000C48
:103AF000880B990B0E94D8E19B01AC0160E070E05B
:103B0000CB01D3CFDF5FDD1271CF83E08093750DE2
:103B100089CF4F925F926F927F92AF92BF92CF9276
:103B2000DF92EF92FF920F931F93CF93DF938091D9
:103B3000060E9091070EA091080EB091090E8130EB
:103B40009048A105B10540F01092060E1092070EA4
:103B50001092080E1092090E6091060E7091070ED9
:103B60008091080E9091090E25E030E040E050E091
:103B70000E94C4E5C22F8091760D1816F4F4482FE8
:103B8000082E000C550B41505109022E000C330B2E
:103B90002417350794F0CFEFC80F25E0C29FC0016E
:103BA0001124092E000CAA0BBB0B8093060E9093D8
:103BB000070EA093080EB093090E1092DA0D8091B3
:103BC000DB0DC81714F4C093DB0D8091DB0D082EBC
:103BD000000C990B03962C2F0C2E000C330B821724
:103BE000930724F48DEF8C0F8093DB0DD091DB0DC8
:103BF000ED2E84E0D82EDD0EF090DD0DCF2CBF2C05
:103C0000AD2EA194D11129C08091C102882351F019
:103C100081E0C11180E003E023E048ED5DE16A2D21
:103C20000E94911BBB2009F479C0C11177C00E948A
:103C30007A1B8091DA0D882309F470C0DF91CF914F
:103C40001F910F91FF90EF90DF90CF90BF90AF90BA
:103C50007F906F905F904F900895D130A9F580913B
:103C6000C102882361F06D2F6E1981E0C13009F027
:103C700080E000E22EE34CEC5DE10E94911BCC2041
:103C800009F44CC0C13009F049C000918D0D10916C
:103C90008E0D6091850D7091860D072E000C880B9E
:103CA000990B0E94D8E12B013C016091890D709124
:103CB0008A0D072E000C880B990B0E94D8E1A301F6
:103CC00092010E9480BEB5CFD23041F58091C102F1
:103CD000882361F06D2F6E1981E0C23009F080E019
:103CE00000E22EE34CEB5DE10E94911BFF20B1F05E
:103CF000C230A1F400918D0D10918E0D6091850D53
:103D00007091860D072E000C880B990B0E94D8E14C
:103D10009B01AC0160E070E0CB01D3CFDF5FDD122F
:103D200071CF83E08093760D89CF0F931F93CF934C
:103D30008C01C0E0F801EC0FF11D6081662331F0C9
:103D40008BEE91E10E9468B4CF5FF4CFCF911F91C9
:103D50000F910895CF93DF93EC01FE0164916623E8
:103D600031F08BEE91E10E9468B42196F6CFDF919D
:103D7000CF9108950F931F93CF93DF938C01EB01A5
:103D800061E081E00E9451B4C8010E94AA1E209700
:103D9000C1F06AE38BEE91E10E9405B2FE019F0142
:103DA0002C1B3D0B81918111FACF61E084E1821BD4
:103DB0000E9451B4CE01DF91CF911F910F910C94CD
:103DC000951EDF91CF911F910F9108952F923F92F1
:103DD0004F925F926F927F928F929F92AF92BF921B
:103DE000CF92DF92EF92FF920F931F93CF93DF93C7
:103DF00000D000D01F921F92CDB7DEB72091DD0D0D
:103E00002223D1F028960FB6F894DEBF0FBECDBFA7
:103E1000DF91CF911F910F91FF90EF90DF90CF90A6
:103E2000BF90AF909F908F907F906F905F904F90DA
:103E30003F902F900C947A1B1B019E838D83809161
:103E4000060E9091070EA091080EB091090E892BD5
:103E50008A2B8B2B09F468C00E94151680918D0265
:103E60009101220F331F220F331F38872F8388239E
:103E700009F485C0F901EF57FD4F40805180628001
:103E80007380F901EB58FD4FC080D180E280F38050
:103E90008091060E9091070EA091080EB091090E28
:103EA00089839A83AB83BC83BC01CD010E94D8E196
:103EB00020917E0D30917F0D4091800D5091810DAC
:103EC0000E9437E20F811885065E114FD8012D91AF
:103ED0003D914D915C910E9401E64B015C0189810D
:103EE0009A81AB81BC81B7FF6EC0A3019201C5016D
:103EF000B4010E94D1E187FD5FC0AF81B885A65EA5
:103F0000B14FFD0180829182A282B382C1010E94E1
:103F1000301B1092060E1092070E1092080E10928F
:103F2000090E81E08093C1028091C102882309F4C7
:103F300063C0C101880F991F880F991F865E914F3A
:103F40000E9409C4BC018D819E8128960FB6F89409
:103F5000DEBF0FBECDBFDF91CF911F910F91FF90BC
:103F6000EF90DF90CF90BF90AF909F908F907F9019
:103F70006F905F904F903F902F900C94BA1EEF81FE
:103F8000F885E65EF14FC080D180E280F38020E0CA
:103F900030E04AE754E4C701B6010E9400E62B0175
:103FA0003C0120E030E04AE754E4C701B6010E943A
:103FB00001E66B017C016CCFD8014D925D926D9250
:103FC0007C921397A3CF89819A81AB81BC81892B85
:103FD0008A2B8B2B09F491CFA7019601C501B4015F
:103FE0000E9461E818160CF088CFD801CD92DD92BE
:103FF000ED92FC9213978ACF28960FB6F894DEBF05
:104000000FBECDBFDF91CF911F910F91FF90EF9029
:10401000DF90CF90BF90AF909F908F907F906F90E8
:104020005F904F903F902F9008958091C102882318
:1040300031F070E060E08CE19EE10E94BA1E84E005
:104040008093C1028091790D882379F080917A0D57
:10405000882359F080917B0D882339F040E050E0AF
:10406000BA0180E994E50C94521B08950F931F93B5
:10407000CF93DF9300D000D000D01F92CDB7DEB732
:104080008091C1028823F1F01F9289E18F93809182
:10409000780D90E001969F938F9385E09EE19F932A
:1040A0008F938E010F5F1F4F1F930F930E94A1E10B
:1040B000B8018AEF9DE10E94BA1E0FB6F894DEBFE8
:1040C0000FBECDBF84E08093C1022A960FB6F8944C
:1040D000DEBF0FBECDBFDF91CF911F910F9108952D
:1040E0008091C102882331F070E060E080EE9DE1B4
:1040F0000E94BA1E84E08093C102089564E084E1C6
:104100000E947CBC68E672E080E00E946EB460E6CB
:1041100072E081E00E946EB468E572E082E00E9485
:104120006EB460E572E086E00E946EB468E472E00E
:1041300087E00E946EB460E472E083E00E946EB497
:1041400068E372E084E00E946EB460E372E085E0B0
:104150000E946EB40C9460B44F925F926F927F9203
:104160008F929F92AF92BF92CF92DF92EF92FF9287
:104170000F931F93CF93DF9300D000D000D01F92F6
:10418000CDB7DEB760E080E00E9451B462E08BEE14
:1041900091E10E9405B220E030E040E05FE36091F1
:1041A000E7117091E8118091E9119091EA110E9454
:1041B00001E60E946DE77A8369838E010F5F1F4FCE
:1041C000C8010E9442C5BC018BEE91E10E94DAB2A7
:1041D0006FE28BEE91E10E9405B26091E511709162
:1041E000E611072E000C880B990B0E94D8E120E005
:1041F00030E040E05FE30E9401E60E946DE77A83D1
:104200006983C8010E940DC5BC018BEE91E10E943B
:10421000DAB281ED9CE10E94AA1E6091E5117091D5
:10422000E611072E000C880B990B0E94D8E120E0C4
:1042300030E040E251E40E94D1E187FF05C060E236
:104240008BEE91E10E9405B260E08AE00E9451B4D9
:1042500060E08BEE91E10E9405B220E030E040E0AA
:104260005FE360916F0D7091700D8091710D909171
:10427000720D0E9401E60E946DE77A836983C8018E
:104280000E9442C5BC018BEE91E10E94DAB26FE25E
:104290008BEE91E10E9405B26091180E7091190E9B
:1042A000072E000C880B990B0E94D8E120E030E02B
:1042B00040E05FE30E9401E60E946DE77A83698334
:1042C000C8010E940DC5BC018BEE91E10E94DAB2DB
:1042D0008EEC9CE10E94AA1E6091180E7091190E3E
:1042E000072E000C880B990B0E94D8E120E030E0EB
:1042F00040E251E40E94D1E187FF05C060E28BEE0D
:1043000091E10E9405B20E9426BEC0906B0DD09034
:104310006C0DE0906D0DF0906E0D9B01AC012C19B1
:104320003D094E095F0969017A01F7FC11C020912E
:104330006A0D209520936A0D6A547C4F8F4F9F4FD2
:1043400060936B0D70936C0D80936D0D90936E0D5B
:10435000F0906A0D61E080E00E9451B4FF2009F402
:10436000D0C18CEC9CE10E94AA1E60911A0E709143
:104370001B0E80911C0E90911D0E0E946DE77A839A
:104380006983C8010E949AC4BC018BEE91E10E942E
:10439000DAB260E28BEE91E10E9405B2FF2009F4EF
:1043A000BFC18AEC9CE10E94AA1E60911E0E709112
:1043B0001F0E8091200E9091210E0E946DE77A834E
:1043C0006983C8010E949AC4BC018BEE91E10E94EE
:1043D000DAB261E08CE00E9451B4FF2009F4AFC171
:1043E00088EC9CE10E94AA1E2CEA35EC47E257E3D8
:1043F0006091220E7091230E8091240E9091250ED3
:104400000E9401E620E030E048EC52E40E9437E2EE
:104410000E946DE76B017C01F7FCA0C160E230E116
:10442000C31637E2D306E104F10484F0B60120E1BB
:1044300037E240E050E00E9449E9CA01B9012AE0B0
:1044400030E040E050E00E9449E9605D6093DF0D9C
:1044500060E248EEC41643E0D406E104F1048CF0B7
:10446000C701B60128EE33E040E050E00E9449E980
:10447000CA01B9012AE030E040E050E00E9449E979
:10448000605D6093E00DC701B60124E630E040E0D6
:1044900050E00E9449E99AE0892E912CA12CB12C80
:1044A000CA01B901A50194010E9449E9605D6093C8
:1044B000E10DC701B601A50194010E9449E9F62E5C
:1044C000CA01B901A50194010E9449E9FF2009F43C
:1044D0004FC18EE28093E20D605D6093E30D80E357
:1044E0008F0D8093E40D1092E50D6FED7DE08BEE66
:1044F00091E10E94DAB262E080E00E9451B466E08D
:104500008BEE91E10E9405B283E792E00E9442C5E2
:10451000BC018BEE91E10E94DAB265E28BEE91E193
:104520000E9405B262E087E00E9451B485EC9CE1F4
:104530000E94AA1E80916A13882309F42BC18091DE
:104540003815882309F424C18091E2159091E31570
:10455000A091E415B091E5150097A105B10509F406
:1045600017C1BC01CD016D597F4F8F4F9F4F24E67E
:1045700030E040E050E00E94C4E56091E6157091A3
:10458000E7158091E8159091E9150E94C4E530E0A7
:104590003A832983C8010E9442C5BC018BEE91E198
:1045A0000E94DAB265E28BEE91E10E9405B20E94B0
:1045B00045C02B013C0120E13EE040E050E00E947C
:1045C000C4E5D22EC32EE22EF32E8CE3882E912C3E
:1045D000A12CB12CC301B201A50194010E94C4E534
:1045E000CA01B901A50194010E94C4E554E6E5168B
:1045F000F10408F0D4C07F936F93C70168E170E0C5
:104600000E9421E99F938F9387EB9CE19F938F9367
:104610001F930F930E94A1E10FB6F894DEBF0FBE67
:10462000CDBF95E062E083E1891B0E9451B467E051
:104630008BEE91E10E9405B2C8010E94951E63E0D5
:1046400080E00E9451B485EC92E00E94951E80911A
:10465000DD0D882349F00E947E2040E050E0BA0141
:1046600083E897E50E94521B4091060E5091070E79
:104670006091080E7091090E2091730230917402BE
:10468000C901840F951F243631050CF09BC0853677
:1046900091050CF09EC09093740280937302109267
:1046A000060E1092070E1092080E1092090E8091BD
:1046B000730290917402883E43E0940714F087EEF1
:1046C00093E08A30910514F48AE090E090937402AC
:1046D000809373022A960FB6F894DEBF0FBECDBF4B
:1046E000DF91CF911F910F91FF90EF90DF90CF90CE
:1046F000BF90AF909F908F907F906F905F904F9002
:1047000008958091790D6FE3882329F08091EE0D53
:10471000811127CE60E28BEE91E10E9405B225CE99
:1047200080917A0D6FE3882329F08091EF0D81113C
:1047300038CE60E28BEE91E10E9405B236CE8091D8
:104740007B0D6FE3882329F08091F00D811148CE15
:1047500060E28BEE91E10E9405B246CEF094E094C7
:10476000D094C094C11CD11CE11CF11C6DE26ECE32
:10477000662341F08EE28093E20D605D6093E30D6D
:1047800080E2AFCE80E28093E30D8093E20DF8CF1C
:1047900020E0FDCE81EC9CE10E94AA1E03CF7F9316
:1047A0006F93CF92DF928FEA9CE19F938F931F9339
:1047B0000F930E94A1E10FB6F894DEBF0FBECDBFEC
:1047C00096E030CF2436310539F0843691050CF06F
:1047D00062CF84E690E05FCF4B30510561057105F3
:1047E00014F00A9758CF463F5F4F6F4F7F4F0CF042
:1047F0005ECF0A9650CF4F925F926F927F92AF92A8
:10480000BF92CF92DF92EF92FF920F931F93CF93BD
:10481000DF9324E030E041E050E0D901AB57BC4FDA
:10482000FD0165917491861797070CF066C04150A1
:104830005109440F551F440F551FEA01C957DC4F5A
:10484000FE01059114914B575C4FFA0165917491EB
:10485000F901E957FC4FE590F490FE01C590D49022
:10486000FD01C591D491FA01A590B490861B970BD8
:10487000BC01990F880B990B0E94D8E12B013C01D8
:10488000B7016C197D09072E000C880B990B0E944B
:10489000D8E19B01AC01C301B2010E9437E26B0178
:1048A0007C01BE016A197B09072E000C880B990B4D
:1048B0000E94D8E19B01AC01C701B6010E94FBE652
:1048C0006B017C01B801110F880B990B0E94D8E194
:1048D0009B01AC01C701B6010E9401E6DF91CF91B7
:1048E0001F910F91FF90EF90DF90CF90BF90AF900E
:1048F0007F906F905F904F9008954F5F5F4F2C5F58
:104900003F4F2038310509F088CFE3E0F4E06591AE
:104910007491072E000C880B990B0E94D8E1DECF12
:10492000CF92DF92EF92FF92C0906F0DD090700DFA
:10493000E090710DF090720D6091180E7091190E4B
:10494000072E000C880B990B0E94D8E120E030E084
:1049500040EC50E40E9400E6A70196010E9461E845
:1049600018160CF520E030E040E050E4C701B60135
:104970000E9401E60E946DE77093F70C6093F60CBD
:104980000E9426BE605A75418F4F9F4F6093F20C74
:104990007093F30C8093F40C9093F50CFF90EF90D0
:1049A000DF90CF9008951092F20C1092F30C1092B9
:1049B000F40C1092F50CF2CF0C9490241092E611A6
:1049C0001092E5110E9432BE1092190E1092180E2C
:1049D0000E9490240E94D3BE1092E6111092E5111D
:1049E0000E9432BE10922C0D2C981092190E10922B
:1049F000180E10922A0D9FB7F894E2E0F1E0808142
:104A00008F7D80839FBF08954F925F926F927F92B8
:104A1000AF92BF92CF92DF92EF92FF920F931F93CC
:104A2000CF93DF9324E030E041E050E0D901A95C6E
:104A3000B44EFD0165917491861797070CF066C01E
:104A400041505109440F551F440F551FEA01C75CDF
:104A5000D44EFE0105911491495C544EFA016591C2
:104A60007491F901E75CF44EE590F490FE01C59075
:104A7000D490FD01C591D491FA01A590B490861B04
:104A8000970BBC01990F880B990B0E94D8E12B0161
:104A90003C01B7016C197D09072E000C880B990B9E
:104AA0000E94D8E19B01AC01C301B2010E9437E230
:104AB0006B017C01BE016A197B09072E000C880B73
:104AC000990B0E94D8E19B01AC01C701B6010E947D
:104AD000FBE66B017C01B801110F880B990B0E945A
:104AE000D8E19B01AC01C701B6010E9401E6DF914C
:104AF000CF911F910F91FF90EF90DF90CF90BF90DB
:104B0000AF907F906F905F904F9008954F5F5F4F91
:104B10002C5F3F4F243F310509F088CFE9E2FCE1EB
:104B200065917491072E000C880B990B0E94D8E1B7
:104B3000DECF8F929F92AF92BF92CF92DF92EF9291
:104B4000FF928091110D9091120D0E94FB234B0159
:104B50005C0123E333E343E35FE36091EE0C709188
:104B6000EF0C8091F00C9091F10C0E9437E26B01F8
:104B70007C012AE939E949E95EE3C501B4010E94F3
:104B800037E29B01AC01C701B6010E9401E66093C8
:104B9000EE0C7093EF0C8093F00C9093F10C6093FB
:104BA000E7117093E8118093E9119093EA118091D5
:104BB0000F0D9091100D0E94042560936F0D70935E
:104BC000700D8093710D9093720D8FB7F8941092C1
:104BD000130D8FBFFF90EF90DF90CF90BF90AF90FD
:104BE0009F908F9008958091A30C80FF25C0899A93
:104BF0008FEF80931B028091A30C81FF20C08F98C0
:104C00008FEF80931C028091A30C9FB782FF1AC084
:104C1000F89480910B018D7F80930B019FBF439887
:104C20008FEF80931D028091A30C83FF15C016980F
:104C30008FEF80931E020895899881E0DACF8F9AD2
:104C400081E0DFCFF89480910B01826080930B01AB
:104C50009FBF439A81E0E5CF169A81E0EACF4F9259
:104C60005F926F927F928F929F92AF92BF92EF92DC
:104C7000FF920F931F93CF93DF93C7E9DDE080ECA2
:104C8000E82E8FE0F82E0DED17E0412C512C32016B
:104C900043946991799189919991F70181909190CB
:104CA000A190B1907F010E94D6E1A50194010E94DC
:104CB00037E20E9474E7F8016193719381939193B5
:104CC0008F01461657066806790610F42B013C0141
:104CD000FDE0C73ADF07E9F66FEF7FEFCB01A301F5
:104CE00092010E94C4E52093D9073093DA074093DC
:104CF000DB075093DC07DF91CF911F910F91FF905D
:104D0000EF90BF90AF909F908F907F906F905F904B
:104D10004F9008954F925F926F927F928F929F92E1
:104D2000AF92BF92CF92DF92EF92FF920F931F93B9
:104D3000CF93DF9300D000D01F921F92CDB7DEB784
:104D40005C014B018A014090CA075090CB076090EC
:104D5000CC077090CD0720E030E0A901C301B2017B
:104D60000E94D1E1882309F4C2C02091F90D30914D
:104D7000FA0D4091FB0D5091FC0DF801608171819D
:104D8000828193810E9400E62091C6073091C70777
:104D90004091C8075091C9070E9400E66B017C0151
:104DA000AC019B01C301B2010E94D1E118160CF0C5
:104DB00087C0A701960160910F0270911002809147
:104DC0001102909112020E94D1E1882321F1C09238
:104DD0000F02D0921002E0921102F0921202209182
:104DE000BA073091BB074091BC075091BD07C7017E
:104DF000B6010E9437E29B01AC0160E070E080E800
:104E00009FE30E9400E660930B0270930C02809374
:104E10000D0290930E028091291281FF51C02091C2
:104E2000F50D3091F60D4091F70D5091F80DF4010C
:104E300060817181828193810E9400E62091C20786
:104E40003091C3074091C4075091C5070E9400E606
:104E50006D837E838F8398872091F10D3091F20DC1
:104E60004091F30D5091F40DF501608171818281C3
:104E700093810E9400E62091BE073091BF074091C8
:104E8000C0075091C1070E9400E669837A838B8333
:104E90009C834BE052E0BE016B5F7F4FCE010196D9
:104EA0000E9419AD9B01AC01F80160817181828182
:104EB00093810E9401E6F80160837183828393836A
:104EC00028960FB6F894DEBF0FBECDBFDF91CF910D
:104ED0001F910F91FF90EF90DF90CF90BF90AF9018
:104EE0009F908F907F906F905F904F90089580E09B
:104EF00090E0A0E8BFE380930B0290930C02A09394
:104F00000D02B0930E0287CFEF92FF920F931F9383
:104F1000CF938C017B01C42FF801808191810E9485
:104F20009EE5F70181937F012091B3073091B4078B
:104F3000820F932F911D9093B4078093B307F801CC
:104F400080819181019691838083C15029F7CF910F
:104F50001F910F91FF90EF900895FC0120E03EE239
:104F6000DB014D91BD01403249F0283011F430830E
:104F70003196DB0111974C91408331962F5F2B3096
:104F800079F7108208952BE1FB013496DC01149629
:104F900001900D922A95E1F7FB0122813381FC01FA
:104FA0003383228321EE33E031832083089561E04F
:104FB000FC0180810C94E2B28EBD0DB407FEFDCFE2
:104FC00008958FEF8EBD0DB407FEFDCF8EB5089509
:104FD0008F929F92AF92BF92EF92FF920F931F9387
:104FE000CF937C01C62F49015A01FC019281892F80
:104FF000806A86958CBD90FD03C081E0963009F4EF
:1050000080E08DBD60E0F70180810E94E2B28CE219
:1050100091E00E94ECBE8C2F80640E94DC2708E1A6
:1050200010E0D501C401002E04C0B695A795979550
:1050300087950A94D2F70E94DC2708501109083F8F
:10504000FFEF1F0771F785E9CC2321F087E8C8300F
:1050500009F08FEF0E94DC27CC3011F40E94E12789
:10506000C0E00E94E127F701838387FF04C0CF3FA0
:1050700011F0CF5FF6CFCF911F910F91FF90EF907E
:10508000BF90AF909F908F9008950F931F93CF93F1
:10509000DF93EC0189018C81833039F089E0440F82
:1050A000551F661F771F8A95D1F79A01AB0168E1FA
:1050B000CE010E94E827882319F086E089833AC050
:1050C0008EEF8EBDF801C8019E5F0DB407FEFDCFC7
:1050D00020812EBD0DB407FEFDCF21812EBD32965D
:1050E000E817F90791F70DB407FEFDCF8FEF0E9487
:1050F000DC278FEF0E94DC270E94E1278B838F71D2
:10510000853099F488E592E00E94ECBE182F87E183
:105110001123A1F220E030E0A9016DE0CE010E9450
:10512000E827882361F086E1C9CF83E18983CE0136
:105130000E94D727CE010E94D72710E007C00E9407
:10514000E1278111F0CFCE010E94D727812FDF9177
:10515000CF911F910F910895CF938091D811C1E005
:105160008823A1F04091D0115091D1116091D211BA
:105170007091D31120ED3FE08091D9119091DA1117
:105180000E944528C82F811104C0C0E08C2FCF9108
:1051900008954091D4115091D5116091D61170911C
:1051A000D711411551056105710591F020ED3FE0E2
:1051B0008091D9119091DA110E944528882329F312
:1051C0001092D4111092D5111092D6111092D711BD
:1051D0001092D811DBCFEF92FF920F931F93CF93D2
:1051E000DF93EC0179018C81833039F089E0440F41
:1051F000551F661F771F8A95D1F79A01AB0161E1B0
:10520000CE010E94E827882339F084E08983CE010B
:105210000E94D72780E03BC00E9426BE8B010E94DF
:10522000E1278B838F3F81F40E9426BE601B710BA8
:105230006D327140A0F381E18983CE010E94D727AE
:105240008FEF0E94DC27E6CF8E3F11F08FE0F4CF86
:105250008FEF8EBDF701D701A150BE4F0DB407FEF1
:10526000FDCF9EB591938EBDAE17BF07B9F70DB4B4
:1052700007FEFDCF8EB58C930E94E1270E94E127A7
:10528000CE010E94D7278FEF0E94DC2781E0DF91BB
:10529000CF911F910F91FF90EF900895CF92DF92E1
:1052A000EF92FF92CF936B017C01C42F8091D011BC
:1052B0009091D111A091D211B091D3118C159D056F
:1052C000AE05BF0501F10E94AC28811108C0C0E005
:1052D0008C2FCF91FF90EF90DF90CF90089520ED2D
:1052E0003FE0B701A6018091D9119091DA110E9497
:1052F000EB28882361F3C092D011D092D111E092B3
:10530000D211F092D311CC2321F081E08093D811F7
:10531000DFCFC1E0DDCF4F925F926F927F928F928D
:105320009F92AF92BF92CF92DF92EF92FF920F9334
:105330001F93CF93DF93EC01423051056105710556
:1053400090F480E0DF91CF911F910F91FF90EF904B
:10535000DF90CF90BF90AF909F908F907F906F9095
:105360005F904F90089589859A85AB85BC8501969D
:10537000A11DB11D84179507A607B70710F38F89E4
:105380008031C9F5852E962EA72EBB248B899C894A
:10539000AD89BE89880E991EAA1EBB1E280139013F
:1053A0006A017B0141E0C501B4010E944E298823B6
:1053B00041F29F89903181F5DD24EE24FF24F6012E
:1053C000EE0FFF1FE053F04F118300839A89923054
:1053D00008F4B8CF4D815E816F817885840E951E6B
:1053E000A61EB71E8092D4119092D511A092D6110C
:1053F000B092D711A7CF803209F0A3CF8B899C89B7
:10540000AD89BE894A015B01E7E0B694A794979401
:105410008794EA95D1F7BECFE894C7F8DD24EE244F
:10542000FF24F601EE0FFF1FEE0FFF1FE053F04FBA
:105430004082518262827382C9CFCF92DF92EF9213
:10544000FF920F931F93CF93DF93FC018185928589
:10545000A385B4850196A11DB11D84179507A607E4
:10546000B70750F480E0DF91CF911F910F91FF902B
:10547000EF90DF90CF90089587898031A9F5BB2701
:10548000A72F962F852FC388D488E588F6888C0DA2
:105490009D1DAE1DBF1DE9016A017B018F01409179
:1054A000D0115091D1116091D2117091D311841704
:1054B0009507A607B70749F5F8018789803169F58F
:1054C000B701A601552766277727440F551F40537C
:1054D000504FFA0180819181B0E0A0E088839983E8
:1054E000AA83BB8381E0BFCF803209F0BBCFC388E2
:1054F000D488E588F688DB01CA01C7E0B695A79590
:1055000097958795CA95D1F7C2CF40E0BC01CD01F0
:105510000E944E298111D0CFA5CFB701A6014F77A8
:10552000552766277727440F551F440F551F4053B3
:10553000504FFA0180819181A281B381BF70CECF9B
:105540004F925F926F927F92AF92BF92CF92DF9213
:10555000EF92FF920F931F93CF93DF9300D01F9290
:10556000CDB7DEB78C0149835A836B837C835901A5
:10557000C12CD12C7601412C82E0582E612C712C4B
:1055800049815A816B817C819E012F5F3F4FC80109
:105590000E941D2A882319F1F8018585A301920133
:1055A00004C0220F331F441F551F8A95D2F7DA011A
:1055B000C901C80ED91EEA1EFB1E49815A816B81A2
:1055C0007C8187898031F1F481E0483F5F4F61053C
:1055D0007105B0F2F501C082D182E282F3820F90B0
:1055E0000F900F900F90DF91CF911F910F91FF902F
:1055F000EF90DF90CF90BF90AF907F906F905F90D3
:105600004F90089581E0483F5F4F6F4F7F4008F40F
:10561000B7CFE0CF0F931F93CF93DF93FC0123818C
:10562000222331F080E0DF91CF911F910F910895F7
:105630008B01EC01FB018789803139F582E08B8396
:105640001D8A1E8A1F8A188E808D918DB0E0A0E081
:1056500025E0880F991FAA1FBB1F2A95D1F7898BB8
:105660009A8BAB8BBC8B1A8F098F81E089831C824C
:105670001D821E821F82188619861A861B861C862A
:105680001D861E861F86188ACECF803259F683E08B
:105690008B83428D538D648D758D4D8B5E8B6F8B9F
:1056A000788F9E012F5E3F4FC8010E94A02A811172
:1056B000DACFB8CF8F929F92AF92BF92CF92DF9204
:1056C000EF92FF920F931F93CF93DF93EC018B81A7
:1056D00081110EC080E0DF91CF911F910F91FF905B
:1056E000EF90DF90CF90BF90AF909F908F900895F4
:1056F00009891A892B893C8904171507260737075A
:1057000048F34A015B01823031F488869986AA8683
:10571000BB8681E0E0CF81149104A104B10449F477
:105720001C821D821E821F82188619861A861B867D
:10573000F0CF088519852A853B85E98DFA8D858509
:1057400090E00996B901A801415051096109710918
:10575000082E04C076956795579547950A94D2F719
:1057600075016401E1E0CE1AD108E108F10804C036
:10577000F694E794D794C7948A95D2F7C416D506C1
:10578000E606F70620F0012B022B032B11F58D897D
:105790009E89AF89B88D8C839D83AE83BF838E0134
:1057A0000C5F1F4FC114D104E104F10409F4ADCF23
:1057B0004C815D816E817F819801898D9A8D0E94D7
:1057C0001D2A91E0C91AD108E108F1088111EACF38
:1057D00081CFC41AD50AE60AF70AE1CF40E050E0CB
:1057E000BA010C945A2B3F924F925F926F927F9224
:1057F0008F929F92AF92BF92CF92DF92EF92FF92E1
:105800000F931F93CF93DF93CDB7DEB72C970FB6CF
:10581000F894DEBF0FBECDBF5C01DC0159968D90C0
:105820009C90F40181859285A385B4859C01AD018E
:105830002F5F3F4F4F4F5F4F29873A874B875C87DA
:10584000D50114964D905D906D907C901797411402
:1058500051046104710409F459C0BFEF4B1A5B0A8B
:105860006B0A7B0A312C730162011D821E821F822A
:105870001886F40181859285A385B4852D813E81AA
:105880004F815885281739074A075B0708F056C02B
:1058900089859A85AB85BC858C159D05AE05BF05B0
:1058A00050F482E0C82ED12CE12CF12C92E0492E4C
:1058B000512C612C712C9E012F5F3F4FB701A60127
:1058C000C4010E941D2A8823C9F189819A81AB8174
:1058D000BC81892B8A2B8B2B01F1260137019FEF8D
:1058E000491A590A690A790A2D813E814F815885E2
:1058F0002F5F3F4F4F4F5F4F2D833E834F8358871E
:105900003FEFC31AD30AE30AF30AB3CF40805180B2
:105910006280738033243394A6CFC414D504E60484
:10592000F70411F70FEF1FEF2FEF3FE0B701A601CC
:10593000C4010E948B29782E81111AC0712C872DE9
:105940002C960FB6F894DEBF0FBECDBFDF91CF917E
:105950001F910F91FF90EF90DF90CF90BF90AF908D
:105960009F908F907F906F905F904F903F900895A1
:10597000F5014481558166817781411551056105A5
:10598000710539F097018601C4010E948B29882393
:10599000A9F2D5011496CD92DD92ED92FC92179763
:1059A000332051F0D701C6010196A11DB11DF401AC
:1059B00080839183A283B383F50185899689A78922
:1059C000B08D892B8A2B8B2B09F0B9CFC58AD68A4B
:1059D000E78AF08E818180688183B1CFCF93DF9396
:1059E000EC01462F41706C857D858E859F850E94D8
:1059F0004E29882351F0888920E2829FC00111241A
:105A00008053904FDF91CF91089590E080E0FACFDE
:105A1000CF93DF93EC018B81882349F1898187FF44
:105A200022C061E0CE010E94EE2CFC01892BF9F02E
:105A30008081853EE1F08B81823040F489899A89AA
:105A4000AB89BC89848F958FA68FB78F8D899E89EE
:105A5000938F828F8D899E89AF89B88DB58BA48BEA
:105A600089818F778983DF91CF910C94AC2881E075
:105A7000888380E0DF91CF9108952F923F924F92DB
:105A80005F926F927F928F929F92AF92BF92CF92CE
:105A9000DF92EF92FF920F931F93CF93DF9300D08B
:105AA0001F92CDB7DEB78C014B011A01DC011396B2
:105AB0008C911397813009F0CAC011968C9181FFA7
:105AC000C6C082FDB0C06101D80118964D915D91AC
:105AD0006D917C911B97C114D10409F41AC1599698
